:1000000068040020D1300000CD300000CD30000069
:1000100000000000000000000000000000000000E0
:10002000000000000000000000000000CD300000D3
:100030000000000000000000CD3000002D32000064
:10004000CD300000CD300000CD300000CD300000BC
:10005000CD300000CD300000CD300000CD300000AC
:10006000CD300000CD300000CD300000CD3000009C
:10007000CD300000CD300000CD300000CD3000008C
:10008000CD300000CD300000CD30000010B5064C62
:100090002378002B07D1054B002B02D0044800E049
:1000A00000BF0123237010BD0400002000000000E9
:1000B00058370000084B10B5002B03D007490848FB
:1000C00000E000BF07480368002B00D110BD064BBD
:1000D000002BFBD09847F9E7000000000800002043
:1000E0005837000058370000000000000C4B1B6818
:1000F000002B06D1EFF31083002B07D00022094B11
:100100001A70074A136801331360704772B6BFF361
:100110005F8F0022044B1A700132024B1A70F0E715
:10012000200000202400002000000020084B1A6856
:10013000013A1A601B68002B09D1064B1B78002B73
:1001400005D00122044B1A70BFF35F8F62B670476F
:10015000200000202400002000000020F0B5C6464A
:1001600000B582B001AC0125657000239846A370EC
:10017000257021000E20094FB847094E8023DB016E
:10018000B36165704346A370257021000620B8470F
:100190004023736102B004BC9046F0BDDD25000031
:1001A0000044004110B5002200230270427000217B
:1001B0004280017103760262C26182600373C024CF
:1001C0006401C481037443748374C37403752A2463
:1001D000035543758375063C0355C2840285C1757A
:1001E0002B23C1540133C15410BD0000F0B5D646D5
:1001F0004F464646C0B596B0070016000160CB4A90
:10020000106A80235B00034313620B780520DB0731
:1002100005D516B01CBC90469946A246F0BD0B7899
:1002200017309B07F5D473783B71002B04D1C04A7B
:10023000136C04210B4313643B68984633786A4679
:10024000137069461320BB4B98471320BA4B98474D
:100250002C23F25C002A54D0013BF55C337BEB1875
:10026000DBB2D118C9B28B4221D25219D3B299460E
:10027000B24B9A4603E00135EDB2A94517D00F24E1
:100280002C40337BE4185022AD4902A8D047092CFA
:10029000F1D8A40002ABE05801A900234B70CB7049
:1002A0008B7001330B70C0B2A64B9847E3E7F4891B
:1002B0005022A34902A8A14B9847092C13D9737D5A
:1002C0009B00DBB242461370B37DDB0172781343AF
:1002D000DBB2424653703379342B00D978E19B006E
:1002E000994AD3589F46A40002ABE05801A90023C5
:1002F0004B70CB708B7001330B70C0B2914B984731
:10030000DDE7347B50228E4902A88C4B9847092C9C
:1003100015D9F48950228A4902A8884B9847092C9C
:10032000CDD8A40002ABE05801A900234B70CB70DC
:100330008B7001330B70C0B2824B9847BFE7A400AB
:1003400002ABE05801A900234B70CB708B700133D6
:100350000B70C0B27B4B9847DBE7042310240221CB
:100360001AE0717C337C102416E00623102401214E
:1003700012E00823102400210EE000233024002185
:100380000AE000232024002106E0002300240021AD
:1003900002E0022310240121090170220A401343C4
:1003A00042469370F37D17203F2B00D931E7D3707D
:1003B0003A68537E5BB2002BFBDBF37C72881343FD
:1003C0002422B25CD2001343327D92001343B27CEC
:1003D00052001343234342469380337E002B20D0A8
:1003E000102C00D1D6E000D880E0202C00D1B3E062
:1003F000302C16D1F27C002A0AD0F2698032172004
:10040000FF2A00D905E7326A8032FF2A00D900E7C7
:100410001720F269FF2A00DDFBE6326AFF2A00DDC1
:10042000F7E639684A7E52B2002AFBDB4246137275
:100430003A68537E5BB2002BFBDBB38B424693835F
:100440003A68537E5BB2002BFBDB338C424613844D
:100450002C23F35C002B05D0013BDBB217200F2BC4
:1004600000D9D6E62B22B15C17200F2900D9D0E69F
:100470003868427E52B2002AFBDBF289307B0243AD
:10048000B068024309050A431B0413434246136143
:100490002A23F35C13750F2393751533F35C002B3C
:1004A00012D0F38C294A1720934200D9B1E6424674
:1004B0009384328D80231B01D31824499BB28B4235
:1004C00000D9A6E64346DA84214B1B685B01E02293
:1004D000D20013401F4A516849011268D20E0A43E4
:1004E000D2B2134342461385002092E6002C98D1E5
:1004F000F27C002A0FD0F269802109018C46624407
:10050000124917208A4200D983E6326A62440F49B1
:100510008A4200D97DE60D4A1720F169914200DD3B
:1005200077E6316A914200DD73E67AE70004004025
:1005300000080040752F0000E92E0000AD350000D6
:10054000943600006D300000C0350000FF0F000041
:100550002460800020608000F27C002A0FD0F269C5
:10056000802189008C4662441A4917208A4200D9AA
:100570004FE6326A624417498A4200D949E6154A71
:100580001720F169914200DD43E6316A914200DDB6
:100590003FE646E7F27C002A0FD0F269802109028B
:1005A0008C4662440C4917208A4200D931E6326AEF
:1005B000624409498A4200D92BE6074A1720F169AB
:1005C000914200DD25E6316A914200DD21E628E70F
:1005D00017201EE6FF030000FFFF000000B583B0F8
:1005E00001AB80221A700A785A704A789A708A7819
:1005F000DA701900014B984703B000BD6D30000060
:1006000001680322CB691A42FCD1704770B50268B9
:100610000023042401250226117E21420ED1117EE1
:1006200029420DD1117E314206D101339BB2C188DE
:100630009942F1D8122002E0002000E0002070BDB5
:100640000020FCE7F0B585B005000C00160029601D
:100650000B681C209B0701D505B0F0BD0B6817384F
:10066000DB07F9D40800434B9847434B9C46196A73
:10067000831C01273A009A4013000B436246136221
:1006800003A9337E0B700E30C3B2019318003B4BAD
:10069000984701983A4B9847307E0021394B98474C
:1006A000102323602C683389EB80337C2B728023EA
:1006B00002AA1370002353709770D370F069356AE3
:1006C00000284BD002AB1870022302AA5370000C12
:1006D000C0B211002C4B9847002D44D002AB1D70C6
:1006E000022302AA53702D0CE8B21100264B984742
:1006F000737E8022002B04D1244B9B789B07DB0F59
:10070000DA012523F35C002B04D180239B0471695B
:10071000994202D180231B051A43206873687169CE
:100720000B432421715C89070B432621715CC905A9
:100730000B43034313432360728980235B001343FD
:100740006360B3895B00F28952041343727C1343E4
:10075000327CD2031343636200207DE70021200036
:100760000B4B9847AEE701212000094B9847050045
:10077000B4E7C046DD2A000000040040752F0000E9
:10078000E92E0000D12900006D300000002000415A
:100790001D2A0000F0B5DE4657464E464546E0B5F8
:1007A00083B006000D000C881720002C06D103B082
:1007B0003CBC90469946A246AB46F0BD3768300037
:1007C0003A4B98470028F2D13B7E1C309B07EED570
:1007D000337A002B13D17A8B432310201A42E6D1AF
:1007E0007B8B1B0720D47A688023DB0213437B605A
:1007F0007A68C0239B0213437B600A30D7E77B688B
:100800002B4A13407B607A68C0239B0213437B60B2
:100810003000264B984703001220002BC7D13B7EA7
:100820000A309B07C3D5D6E77B68214A13407B601B
:100830007A68C0239B0213437B6030001B4B9847B0
:100840000028B4D1013CA4B200239946194B9B4621
:1008500028239846154B9A460DE07A6880239B0220
:1008600013437B601E30A2E7631E9BB2019A914640
:10087000002C15D01C003000D8474B4601339BB2EA
:1008800001936B684A469B5C4246BB543000D0479C
:10089000002800D08BE77B8B5B07E5D5002CDCD1F3
:1008A0007A6880239B0213437B6080E70D2600005B
:1008B000FFFFFBFF01260000F8B5DE4657464E4617
:1008C0004546E0B507000E000D881724002D06D11F
:1008D00020003CBC90469946A246AB46F8BD036852
:1008E0009846384B9847041EF2D143461B7E1C3471
:1008F0009B07EDD543465A8B43230C3C1A42E7D164
:1009000043465B8B1B070ED543465A688023DB02A8
:100910001343424653605268C0239B02134342462E
:1009200053600A34D4E743465B68274A1340424683
:1009300053605268C0239B02134342465360013DFB
:10094000ADB26B1C994600251E4B9A4601239B466F
:100950003800D047041EBBD143461B7E5A46134283
:100960002BD143461B7E9B0727D43800174B984753
:1009700028234246D35C7268535501354D45E7D173
:100980003800104B984743461B7E5B070CD5434607
:100990005A688023DB021343424653605268802327
:1009A0009B0213434246536043461B7EDB0700D441
:1009B0008EE70123424613768AE7012342461376E7
:1009C000042485E70D260000FFFFFBFF0126000041
:1009D00010B582B004000E4B1B78002B07D0002905
:1009E00005D10B4B5B78834210D01D200CE001A990
:1009F0000C700D20074B98470D20074B9847044B70
:100A00005C7001221A70002002B010BD0020FBE7CC
:100A100028000020752F0000E92E0000204B98428E
:100A200017D0204B984224D01F4B984201D0002071
:100A30007047012907D000292BD0022905D00329AE
:100A400005D00020F4E71948F2E71948F0E7194803
:100A5000EEE7012907D000291DD0022905D003297E
:100A600005D00020E4E71448E2E71448E0E7144822
:100A7000DEE7012907D000290FD0022905D003297C
:100A800005D00020D4E70F48D2E70F48D0E70F4841
:100A9000CEE70F48CCE70F48CAE70F48C8E7C04683
:100AA000000C004200100042000800420300050054
:100AB00003000600030007000200170003001E00E9
:100AC00003001F00030017000300100003001900BB
:100AD00003000400020016000300160030B585B0C4
:100AE00001AA0B4B32CB32C20300019A82420CD0D6
:100AF000029A824207D00020039A9A4201D005B0A0
:100B000030BD023002E0012000E00020C0B2F6E774
:100B1000E436000010B5082803D880001B4B1B5892
:100B20009F46002030E01A4B18692DE0194B1B6AD4
:100B30009B059B0F1848D84026E0154B586923E0C9
:100B4000134B1B6800209B071ED512491022CB684F
:100B50001A42FCD00E4B1B685B0701D40F4813E010
:100B600000200F4B98470A4B9B681B041B0C5843F3
:100B70000AE05023074AD35C00205B0704D5044BEE
:100B8000D86801E08020000210BDC046F0360000A9
:100B90002C0000200008004000127A00006CDC02EB
:100BA000912F000070B50C490B6A04788578407865
:100BB0000122104080014026B34303432A40D20162
:100BC0008020834313430322224012020348034040
:100BD00013430B6270BDC04600080040FFFCFFFFDE
:100BE000082803D88000254B1B589F46172044E057
:100BF000234A136A02210B43136200203DE0204A7E
:100C0000936902210B439361002036E01C4A138A4A
:100C100002210B43138200202FE0194A938A0221FC
:100C20000B439382002028E016490B6802221343ED
:100C30000B60134B9A8419000E32CB681A42FCD019
:100C4000104A91680E4BD96252689A6200229A84C7
:100C500019001032CB681A42FCD00A4B1B689BB2B9
:100C6000074A9384002008E0054944228B5C022057
:100C700003438B54002000E000207047143700002D
:100C8000000800402C000020F0B585B0C222D20040
:100C9000214B9A60214A53681E218B4353600123E4
:100CA0006A46137000241E4DE0B26946A84701341D
:100CB000182CF9D103A80024447001258570047014
:100CC000184B98470620184B9847184B98476B4687
:100CD0005C701C7204236A4613701C3301935572B6
:100CE00069460220124FB8470220124EB047124BFD
:100CF0001C725C729C72DC7201956B465C70062300
:100D00006A4613701472547269460020B847002076
:100D1000B04705B0F0BDC0460008004000400041AB
:100D2000752F0000A52B0000E12B00003D2D0000D9
:100D3000612D0000192E000000040040064A93694E
:100D400008210B4393610122044B1A7019000B78A0
:100D50001342FCD17047C04600040040000C004024
:100D600070B5060004000D782D0205434B78002B6A
:100D700002D08023DB021D434B7A002B02D080235C
:100D80001B031D434868012810D9431E184234D163
:100D9000022830D90223002201325B009842FBD89E
:100DA00012023243140080235B031D430B7A002B95
:100DB00002D080239B031D43134A53785BB2002B60
:100DC000FBDB124B9847124B1E700F4A53785BB2F5
:100DD000002BFBDB0C4B9C601A0053785BB2002BA2
:100DE000FBDB094A5368802149020B401D435560D3
:100DF000084B984770BD0022D2E704023443802399
:100E00009B021D43D2E7C046000C0040ED200000CD
:100E1000080C00402D21000010B504000B4A537847
:100E20005BB2002BFBDB0A4B98470A4B1C70074A4E
:100E300053785BB2002BFBDB044A516880235B02D2
:100E40000B435360044B984710BDC046000C004054
:100E5000ED200000040C00402D21000070B50400BE
:100E60001A4A53785BB2002BFBDB194B9847194B9E
:100E70001C70164A53785BB2002BFBDB134E706874
:100E8000C004C00E144B98470500124B1C707668C6
:100E9000F602F60F114B1C700C4A53785BB2002B14
:100EA000FBDB0A4B9C682402240C0D4B9847002E58
:100EB00007D1012C07D9210028000A4B98470500CB
:100EC00001E00134E540280070BDC046000C004040
:100ED000ED200000040C0040152B0000080C004021
:100EE0002D2100004D34000010B50400064B98473A
:100EF000064B1C70064A53888021C9010B4353805E
:100F0000044B984710BDC046ED200000020C004085
:100F1000000C00402D21000010B504000F4B984735
:100F20000F4B1C700F4A53881B05180F53880E492E
:100F30000B40538053880D490B4053801100802291
:100F4000D2014B881342FCD106494A880302064865
:100F5000024013434B80064B984710BDED20000024
:100F6000020C0040000C0040FFF0FFFFFFBFFFFF3E
:100F70002D21000010B50C7824020443024B984741
:100F8000A4B2024B5C8010BD192F0000000C004081
:100F900010B50400064B9847064B1C70064B5C8846
:100FA0002405240F054B98472000054B984710BD9A
:100FB000ED200000020C0040000C00402D2100003C
:100FC0005D2E000030B5D378002B35D11378802BFF
:100FD00029D01B0680246402234354780225AC43A5
:100FE00006D19478002C20D18024A40223434160B0
:100FF0005478013C012C1CD90D042D0CA024E405CF
:101000002C431C4384620D0CD02424062C431C4327
:101010008462D478002C22D15B031CD59378012BF9
:101020001ED0416117E00023D7E7C024E402234328
:10103000DDE70D4C2340DFE741600C04240CA023C6
:10104000DB05234383620C0CD0231B0623438362FE
:10105000D378002B03D15378013B012B02D930BD4B
:101060008161F8E78160FAE7FFFFFBFF10B50A0036
:10107000C1090023002904D14309DB0105498C463D
:1010800063441F242040012181401800024B9847EF
:1010900010BDC04600440041C52F0000704700004D
:1010A00010B5054B9847054B9847054B9847054B9E
:1010B0009847054B984710BD892C00005D21000022
:1010C0009D3000009D3000009D300000FEE70000D4
:1010D000F8B52A4A2A4B9A4211D01A00294B9A4253
:1010E0000DD2294A03339B1A9B0801339B0000222F
:1010F000234822498C58845004329A42FAD1234A18
:10110000234B9A420AD2D34321495B1803218B43D4
:1011100004339B18002102C29342FCD11D4AFF21D7
:101120001D4B8B439360FD3990235B001B4AD150CC
:101130001B4AD3780325AB4302242343D370D378CF
:101140000C27BB4308263343D370164B987B3022C1
:101150009043202210439873997BB943314399738C
:101160009A7BAA4322439A730F4A536880210B4308
:1011700053600E4B98470E4B9847FEE758370000D8
:1011800000000020040000200400002004000020D3
:101190006400002000ED00E000200000007000412D
:1011A000005000410048004100400041653500000A
:1011B0003132000070B5064B198058601E00054D95
:1011C000054C31002800A0470028FAD170BDC04668
:1011D00048000020500000209527000010B58CB07A
:1011E00068460E4B98470E4C6A460E4920000E4B3F
:1011F00098472268537E5BB2002BFBDB0F2393756D
:101200001376137802210B431370054B1A68537E33
:101210005BB2002BFBDB0CB010BDC046A52100006B
:101220005C00002000200042ED210000704700001B
:10123000F0B5C64600B58EB001252B236B441D705A
:10124000704B98476B465D7000249C701D7069461A
:101250000E206D4FB8476D4E8023DB01B3616B46A6
:101260005D709C701D7069460620B8474023B361CD
:10127000674B1D70674B98476B461C7080239B0320
:10128000019301235B426A46138100235481D48178
:1012900013745374059413765376242269468B5441
:1012A00001328B5426216846435482815A4B07935E
:1012B0005A4B08935A4C6A465A4920005A4B984751
:1012C00023680322D9690A42FCD11A6802210A4321
:1012D0001A600020554B98470138554B98420DD85D
:1012E000544A50605448036A1B021B0AC021090675
:1012F0000B43036200239360073313604F4F0DAB22
:1013000098463C0063E04E4B19684B7E5BB2002B65
:10131000FBDB0B7B022213430B734B7E5BB2002B78
:10132000FBDB01200425022601E010420AD10B7EDE
:10133000DBB202001A401D4200D032431E42F4D0FC
:101340002A43F2E74B7E5BB2002BFBDB4A8B92B267
:1013500001230B76087EC0B20340450701D5022663
:101360003343800701D5042003435B0701D50223E3
:101370000B760C920BA8002303704370130A837042
:10138000C27004212F4B984721E06B4635229B18F1
:101390001E7801236A465370002269468A700B70DA
:1013A0000620194B9847002E06D04022174B9A6111
:1013B0003F3A174B1A700AE04022144B5A61002240
:1013C000134B1A7003E0012111481E4B984702236A
:1013D0003B8043467B60124E1B4D21003000A847E6
:1013E0000028FAD16B4634229B181B78032BCCD0F3
:1013F000042BE8D0022B86D001212B306844114BFE
:101400009847E4E7A1300000DD25000000440041DA
:1014100044000020DD310000020016000200170029
:1014200050000020000C0042452600005D2E000008
:10143000FFFFFF0010E000E000ED00E048000020AA
:101440005C000020B5310000B928000000224308EC
:101450008B4274D303098B425FD3030A8B4244D37C
:10146000030B8B4228D3030C8B420DD3FF220902BE
:1014700012BA030C8B4202D31212090265D0030B7D
:101480008B4219D300E0090AC30B8B4201D3CB0373
:10149000C01A5241830B8B4201D38B03C01A5241B5
:1014A000430B8B4201D34B03C01A5241030B8B42B7
:1014B00001D30B03C01A5241C30A8B4201D3CB02A2
:1014C000C01A5241830A8B4201D38B02C01A524187
:1014D000430A8B4201D34B02C01A5241030A8B428A
:1014E00001D30B02C01A5241CDD2C3098B4201D3A2
:1014F000CB01C01A524183098B4201D38B01C01A20
:10150000524143098B4201D34B01C01A5241030996
:101510008B4201D30B01C01A5241C3088B4201D345
:10152000CB00C01A524183088B4201D38B00C01AF2
:10153000524143088B4201D34B00C01A5241411A19
:1015400000D20146524110467047FFE701B5002026
:1015500000F006F802BDC0460029F7D076E77047D4
:101560007047C04670B500260C4D0D4C641BA4108E
:10157000A64209D1002600F0DFF80A4D0A4C641B90
:10158000A410A64205D170BDB300EB5898470136B0
:10159000EEE7B300EB5898470136F2E74437000016
:1015A000443700004437000048370000002310B5DE
:1015B0009A4200D110BDCC5CC4540133F8E700005E
:1015C0008A230000D0250000D0250000D02500008F
:1015D000D0250000D0250000D0250000D025000037
:1015E000D0250000D0250000D0250000D025000027
:1015F000D0250000D0250000D0250000D025000017
:1016000072230000D0250000D0250000D025000066
:10161000D0250000D0250000D0250000D0250000F6
:10162000D0250000D0250000D0250000D0250000E6
:10163000D0250000D0250000D0250000D0250000D6
:1016400082230000D0250000D0250000D025000016
:10165000D0250000D0250000D0250000D0250000B6
:10166000D0250000D0250000D0250000D0250000A6
:10167000D0250000D0250000D0250000D025000096
:101680007A230000922300005A2300006A230000FE
:101690006223000002000000FFFF000004000000C1
:1016A0000500000006000000070000000E0000001A
:1016B0000F000000FFFF0000FFFF0000FFFF000021
:1016C000FFFF0000FFFF0000FFFF0000FFFF000022
:1016D000FFFF0000FFFF0000FFFF0000FFFF000012
:1016E000FFFF000000080042000C00420010004212
:1016F000262B0000222B0000222B0000842B000050
:10170000842B00003A2B00002C2B0000402B000003
:10171000722B00000C2C0000EC2B0000EC2B0000C6
:10172000782C0000FE2B00001A2C0000F02B00008B
:10173000282C0000682C0000F8B5C046F8BC08BC96
:101740009E467047B5200000F8B5C046F8BC08BCFE
:0C1750009E4670478D2000000100000044
:00000001FF
